:100000000C9434000C9451000C9451000C94510049
:100010000C9451000C9451000C9451000C9451001C
:100020000C9451000C9451000C9451000C9451000C
:100030000C9451000C9485000C9451000C945100C8
:100040000C9451000C9451000C9451000C945100EC
:100050000C9451000C9451000C9451000C945100DC
:100060000C9451000C94510011241FBECFEFD8E026
:10007000DEBFCDBF11E0A0E0B1E0E2ECF8E002C0ED
:1000800005900D92AA30B107D9F711E0AAE0B1E0CE
:1000900001C01D92A031B107E1F70E9452010C94FA
:1000A0005F040C9400007894089588E284B981E597
:1000B0008CBD08958EBD0DB407FEFDCF0895FC01E3
:1000C00031968091C00087FFFCCF9091C60091933C
:1000D0009111F7CF08951092C50087E68093C40070
:1000E0001092C00088E18093C10086E08093C20036
:1000F0000895FC019191992339F08091C00085FF0A
:10010000FCCF9093C600F6CF08951F920F920FB6C2
:100110000F9211248F939F9380910E0190910F0164
:10012000019690930F0180930E01CC976CF0809113
:100130000C0190910D01019690930D0180930C019B
:1001400010920F0110920E0180910C0190910D01FF
:10015000CC976CF080910A0190910B0101969093DD
:100160000B0180930A0110920D0110920C018091F5
:100170000A0190910B01489724F010920B01109204
:100180000A0186EE99EF90938500809384009F91F9
:100190008F910F900FBE0F901F901895CF93DF9304
:1001A00000D000D000D0CDB7DEB749835A836B832F
:1001B0007C838D839E8386E0FE013196AAE0B1E0C8
:1001C00001900D928A95E1F786EE99EF9093850064
:1001D000809384001092800085E08093810081E00C
:1001E00080936F00789426960FB6F894DEBF0FBE0A
:1001F000CDBFDF91CF910895CF93DF9300D000D092
:1002000000D0CDB7DEB786E0EAE0F1E0DE0111967E
:1002100001900D928A95E1F729813A814B815C81A9
:100220006D817E8180E090E026960FB6F894DEBF67
:100230000FBECDBFDF91CF9108950F931F93CF9342
:10024000DF9300D000D000D0CDB7DEB7182F092F34
:100250000E94FC0029833A834B835C836D837F93E8
:100260008D818F938C818F938B818F938A818F93D4
:1002700089818F9320E031E03F932F930F931F9359
:100280000E948E010FB6F894DEBF0FBECDBF26963A
:100290000FB6F894DEBF0FBECDBFDF91CF911F9197
:1002A0000F910895CF93DF93CDB7DEB7CD5ED340E6
:1002B0000FB6F894DEBF0FBECDBF0E946B00C851D1
:1002C000DC4F19821882C85ED340C651DC4F1982B8
:1002D0001882CA5ED340C451DC4F19821882CC5EAA
:1002E000D34040E0C751DC4F5881C95ED34060E045
:1002F000C551DC4F7881CB5ED34080E0C351DC4FE9
:100300009881CD5ED3400E94CE00CE0101960E941E
:100310001D01CE0101960E947900F7CFAEE0B0E05A
:10032000E4E9F1E00C9436040D891E8986E08C83A3
:100330001A8309838FEF9FE79E838D83AE01475E0B
:100340005F4F6F89788DCE0101960E94B001EF81D9
:10035000F885E00FF11F10822E96E4E00C94520411
:10036000ACE0B0E0E6EBF1E00C9428047C016B011A
:100370008A01FC0117821682838181FFBDC1CE01F3
:1003800001964C01F7019381F60193FD859193FF4E
:1003900081916F01882309F4ABC1853239F493FD53
:1003A000859193FF81916F01853229F4B70190E027
:1003B0000E949803E7CF512C312C20E02032A0F48A
:1003C0008B3269F030F4803259F0833269F4206165
:1003D0002CC08D3239F0803339F4216026C0226080
:1003E000246023C0286021C027FD27C030ED380FCE
:1003F0003A3078F426FF06C0FAE05F9E300D1124F3
:10040000532E13C08AE0389E300D1124332E206203
:100410000CC08E3221F426FD6BC1206406C08C36E0
:1004200011F4206802C0883641F4F60193FD8591ED
:1004300093FF81916F018111C1CF982F9F7D9554BA
:10044000933028F40C5F1F4FFFE3F9830DC0833610
:1004500031F0833771F0833509F05BC022C0F801B9
:10046000808189830E5F1F4F44244394512C540193
:1004700015C03801F2E06F0E711CF801A080B18048
:1004800026FF03C0652D70E002C06FEF7FEFC5014E
:100490002C870E948D032C0183012C852F77222E1F
:1004A00017C03801F2E06F0E711CF801A080B18016
:1004B00026FF03C0652D70E002C06FEF7FEFC5011E
:1004C0002C870E9482032C012C852068222E830118
:1004D00023FC1BC0832D90E048165906B0F4B701E9
:1004E00080E290E00E9498033A94F4CFF50127FC53
:1004F000859127FE81915F01B70190E00E949803EA
:1005000031103A94F1E04F1A51084114510471F737
:10051000E5C0843611F0893639F5F80127FF07C0A8
:1005200060817181828193810C5F1F4F08C060815F
:100530007181882777FD8095982F0E5F1F4F2F764A
:10054000B22E97FF09C090958095709561957F4F69
:100550008F4F9F4F2068B22E2AE030E0A4010E9406
:10056000CA03A82EA81844C0853729F42F7EB22EBE
:100570002AE030E025C0F22FF97FBF2E8F36C1F080
:1005800018F4883579F0B4C0803719F0883721F035
:10059000AFC02F2F2061B22EB4FE0DC08B2D846012
:1005A000B82E09C024FF0AC09F2F9660B92E06C03E
:1005B00028E030E005C020E130E002C020E132E078
:1005C000F801B7FE07C060817181828193810C5F61
:1005D0001F4F06C06081718180E090E00E5F1F4F69
:1005E000A4010E94CA03A82EA818FB2DFF77BF2ED6
:1005F000B6FE0BC02B2D2E7FA51450F4B4FE0AC0FE
:10060000B2FC08C02B2D2E7E05C07A2C2B2D03C0EA
:100610007A2C01C0752C24FF0DC0FE01EA0DF11DDE
:100620008081803311F4297E09C022FF06C07394B3
:10063000739404C0822F867809F0739423FD13C04D
:1006400020FF06C05A2C731418F4530C5718732C3F
:10065000731468F4B70180E290E02C870E9498033D
:1006600073942C85F5CF731410F4371801C0312C16
:1006700024FF12C0B70180E390E02C870E9498030A
:100680002C8522FF17C021FF03C088E590E002C03F
:1006900088E790E0B7010CC0822F867859F021FDE1
:1006A00002C080E201C08BE227FD8DE2B70190E03D
:1006B0000E949803A51438F4B70180E390E00E94EB
:1006C00098035A94F7CFAA94F401EA0DF11D8081A2
:1006D000B70190E00E949803A110F5CF332009F4F0
:1006E00051CEB70180E290E00E9498033A94F6CF91
:1006F000F7018681978102C08FEF9FEF2C96E2E190
:100700000C944404FC010590615070400110D8F72E
:10071000809590958E0F9F1F0895FC016150704049
:1007200001900110D8F7809590958E0F9F1F089526
:100730000F931F93CF93DF93182F092FEB018B811A
:1007400081FD03C08FEF9FEF20C082FF10C04E815C
:100750005F812C813D81421753077CF4E881F98148
:100760009F012F5F3F4F39832883108306C0E885A0
:10077000F985812F0995892B29F72E813F812F5FDC
:100780003F4F3F832E83812F902FDF91CF911F9179
:100790000F910895FA01AA27283051F1203181F1F3
:1007A000E8946F936E7F6E5F7F4F8F4F9F4FAF4F79
:1007B000B1E03ED0B4E03CD0670F781F891F9A1F8C
:1007C000A11D680F791F8A1F911DA11D6A0F711D40
:1007D000811D911DA11D20D009F468943F912AE04C
:1007E000269F11243019305D3193DEF6CF01089534
:1007F000462F4770405D4193B3E00FD0C9F7F6CF65
:10080000462F4F70405D4A3318F0495D31FD40522C
:10081000419302D0A9F7EACFB4E0A69597958795C2
:1008200077956795BA95C9F70097610571050895A1
:100830009B01AC010A2E069457954795379527954D
:10084000BA95C9F7620F731F841F951FA01D0895E5
:100850002F923F924F925F926F927F928F929F92D0
:10086000AF92BF92CF92DF92EF92FF920F931F93BE
:10087000CF93DF93CDB7DEB7CA1BDB0B0FB6F8946F
:10088000DEBF0FBECDBF09942A88398848885F84AF
:100890006E847D848C849B84AA84B984C884DF8020
:1008A000EE80FD800C811B81AA81B981CE0FD11D04
:1008B0000FB6F894DEBF0FBECDBFED010895F894DA
:0208C000FFCF68
:0A08C20025643A25643A25640D0010
:00000001FF
